:020000040800F2
:10000000B804002001010008BD08000839020008FA
:10001000B908000849010008250B0008000000008D
:100020000000000000000000000000004F09000870
:100030004D010008000000004D09000851090008AA
:100040001B0100081B0100081B0100081B01000820
:100050001B0100081B0100081B0100081B01000810
:100060001B0100081B0100081B0100081B01000800
:100070001B0100081B0100081B0100081B010008F0
:100080001B0100081B0100081B0100081B010008E0
:100090001B0100081B0100081B0100086501000886
:1000A0001B0100081B0100081B0100081B010008C0
:1000B0001B0100081B010008150B00081B010008AC
:1000C0001B0100081B0100081B0100081B010008A0
:1000D0001B0100081B0100081B0100081B01000890
:1000E0001B0100081B0100081B010008DFF80CD0F1
:1000F00000F018F800480047690B0008B804002019
:100100000648804706480047FEE7FEE7FEE7FEE7B1
:10011000FEE7FEE7FEE7FEE7FEE7FEE7BD0A0008B2
:10012000ED000008064C074D06E0E06840F00103D2
:1001300094E8070098471034AC42F6D3FFF7DAFF93
:10014000540E0008740E000800BFFEE77047000060
:100150000349086000BF024909680029FBD17047C4
:100160001400002010B54FF4807000F01FF9002833
:100170004BD04FF4807000F07DF829480078FF28BC
:1001800000D010BD27480078E8B14FF480702649B0
:1001900009688143244A116000BF00BF111D09682E
:1001A0000143121D116000BF00201E4908701C4948
:1001B000087000BF1D48406A1D49086000211B48A7
:1001C00000F0A8FA21E04FF4807017490968014354
:1001D000154A116000BF00BF111D09688143121D3F
:1001E000116000BF01200F4908700D4908700F48C9
:1001F000243000680E49086000BF0C48406A0D4971
:1002000008600021094800F085FA4FF4007000F002
:10021000CDF818B14FF4007000F02CF800BFB0E733
:100220003E000020080000200804014000080040B3
:10023000440000200C00002000BFFEE708B505497F
:10024000C9690143034AD1611146C969014000915E
:1002500000BF08BD0010024008B505498969014387
:10026000034A9161114689690140009100BF08BDB0
:10027000001002400149086070470000140401406A
:10028000024909688143014A116070470404014032
:10029000024909688143014A116070470004014026
:1002A000024909688143014A116070470004014016
:1002B000024909680143014A116070470404014082
:1002C000024909680143014A116070470C0401406A
:1002D000024909680143014A116070470004014066
:1002E000024909680143014A11607047080401404E
:1002F00070B504460125207900284DD020680028DB
:1003000050D0607920B1012809D0022815D10DE024
:100310002068FFF7B5FF2068FFF7DAFF0FE02068DD
:10032000FFF7BEFF2068FFF7C3FF08E02068FFF774
:10033000CFFF2068FFF7BCFF01E0002500BF00BF32
:10034000A07940B3A079012804D002280DD0032859
:100350001FD117E02068144909688143124A1160CF
:1003600000BF2068FFF7BCFF15E020680E49091F99
:10037000096881430C4A121F116000BF2068FFF713
:100380009FFF08E02068FFF7ABFF2068FFF798FFAA
:1003900001E0002500BF05E02068FFF781FF20682D
:1003A000FFF76EFF284670BD0C040140014604486B
:1003B00000680840884201D1012070470020FCE716
:1003C0001404014010B5094ACBB252F8232022EAA6
:1003D00011420B0C93FAA3F3B3FA83F300FA03F37D
:1003E0001A43024BCCB243F8242010BD0800014050
:1003F0002DE9F04102460B461868C0F30F2595FA27
:10040000A5F0B0FA80F47CE00120A040284000284C
:1004100076D0082C04D240F2011000FA04F106E074
:10042000A4F108004FF00116864046F0806158683C
:1004300002EB116691FAA1FCBCFA8CFC4FEA8C0825
:100440004FF00F0C0CFA08FC376827EA0C0791FAFA
:10045000A1FCBCFA8CFC4FEA8C0C00FA0CFC47EABD
:100460000C07376000BF1869D66826EA11260F0A04
:1004700097FAA7F7B7FA87F700FA07F73E43D6606F
:1004800000BF5868012802D05868092838D19868F8
:1004900002EB116691FAA1FCBCFA8CFC4FEA8C08C5
:1004A0004FF0030C0CFA08FC376827EA0C0791FAA6
:1004B000A1FCBCFA8CFC4FEA8C0C00FA0CFC47EA5D
:1004C0000C07376000BFD86802EB116691FAA1FCF7
:1004D000BCFA8CFC4FEA8C084FF0040C0CFA08FCB8
:1004E000376827EA0C0791FAA1FCBCFA8CFC4FEAAA
:1004F0008C0C00FA0CFC47EA0C07376000BF00BF09
:10050000641C25FA04F000287FF47EAF0120BDE8CA
:10051000F081C1F30F2242617047C1F30F220261E3
:10052000704770B500EB116391FAA1F5B5FA85F546
:10053000AE000F25B5401C68AC4391FAA1F5B5FAA1
:1005400085F5AD0002FA05F52C431C6070BDC2684C
:10055000C1F30F235A40C2607047000070B50120FC
:10056000FFF77AFE4FF08050FFF768FE0320024647
:100570003A4B19684FF6FF031940394B0B4343EAD6
:100580000221364B196000BF00F0C4F90546002275
:10059000114600F09FF9044621466FF00B0000F071
:1005A000C1F900F0B7F905460022114600F092F9B2
:1005B000044621466FF00A0000F0B4F900F0AAF9F1
:1005C00005460022114600F085F9044621466FF0E9
:1005D000090000F0A7F900F09DF905460022114638
:1005E00000F078F9044621466FF0040000F09AF913
:1005F00000F090F905460022114600F06BF9044620
:1006000021466FF0030000F08DF900F083F90546F4
:100610000022114600F05EF9044621466FF0010009
:1006200000F080F900F076F905460022114600F04E
:1006300051F9044621464FF0FF3000F073F900BF36
:100640000848406820F0E060064948600846406875
:1006500040F00070486000BF70BD00000CED00E08D
:100660000000FA05000001404FF47A71B0FBF1F28E
:10067000521E4FF0E0235A6100229A6105221A614E
:1006800000BF704701490860704700005800002013
:1006900010B50246002313681B48824208D0B2F10D
:1006A000804F05D01948824202D01948824204D1B5
:1006B00023F070004C6840EA04031348824208D0DB
:1006C000B2F1804F05D01148824202D010488242D8
:1006D00004D123F44070CC6840EA040313608868B6
:1006E000D06200BF0888906200BF0748824203D1F1
:1006F000087C106300BF00BF00BF506940F00100DC
:10070000506100BF012010BD002C014000040040DA
:10071000000800404162704730B587B00820FFF7FD
:100720009BFD0420FFF798FD38493948FFF7F1FE9B
:1007300040F203300090012001900220029000203E
:100740000390049069463248FFF752FE314800900A
:1007500001200190022002900020039001200490CB
:1007600069462B48FFF744FE2B490120FFF72AFE7C
:100770002A490120FFF726FE4FF4807005900120E2
:100780008DF8180000208DF8190001208DF81A004E
:1007900005A8FFF7ADFD4FF40070059001208DF81E
:1007A000180000208DF8190001208DF81A0005A806
:1007B000FFF79EFD04221A491548FFF7B2FE0822F2
:1007C00018491348FFF7ADFE16480121104AD268B8
:1007D00022EA1022030A93FAA3F3B3FA83F301FA8D
:1007E00003F31A430A4BDA6000BF00F093F80546A2
:1007F0000022114600F06EF804462146172000F052
:1008000091F8172000F05BF807B030BD0F030C041F
:10081000000C01400C000C0402000F000200F0006C
:10082000010001040200020430B585B00420FFF786
:1008300005FD00F06FF805460022114600F04AF869
:10084000044621461E2000F06DF81E2000F037F807
:100850003F20ADF800000020019047F23050029098
:100860000020039069461348FFF712FF00BF1148AC
:10087000006820F080000F49086000BF00208968F0
:1008800044F20702914301430A4A916000BF00BF4E
:100890001146496821F070010143516000BF00BF5B
:1008A0001046806820F080001146886000BF05B0C7
:1008B00030BD00000008004000BFFEE7704700F0B8
:1008C0001F02012191404209920002F1E022C2F888
:1008D00000117047F0B503460C4603F00701C1F163
:1008E0000700042801D9042001E0C1F107000646F1
:1008F000081D072801D2002000E0C81E054601207F
:10090000B040401E2040A8400127AF407F1E174046
:100910003843F0BD02480068C0F302207047000071
:100920000CED00E010B5002807DA0A07140E054A9E
:1009300000F00F031B1FD45403E00A07130E024AF2
:10094000135410BD18ED00E000E400E0704770475C
:1009500002480068401E01490860704714000020EA
:1009600070B502204D49096821F0070101434B4A47
:10097000116000BF00BF1046006800F007000228A9
:1009800004D040F2131146A000F0CEF810204949DF
:10099000096821F0F80141EAC001464A116000BF30
:1009A00000BF1046006840F001001146086000BF1B
:1009B00000BF00BF3F480068C0F340000028F8D0E7
:1009C00000204FF460113B4A526822F47C120A4323
:1009D000384B5A6000BF00BF1846006840F0807076
:1009E0001946086000BF00BF00BF32480068C0F36E
:1009F00040600028F8D000202E49496821F0F0011D
:100A000001432C4A516000BF10151146496821F47A
:100A1000E0610143516000BF00201146496821F4A4
:100A200060510143516000BF02201146496821F026
:100A300003010143516000BF00BF00BF1D48406873
:100A400000F00C000828F8D11B48FFF70DFE042029
:100A5000042808D14FF0E021096941F004014FF06A
:100A6000E022116107E04FF0E021096921F0040163
:100A70004FF0E022116100BF0F48FFF703FEFFF7C0
:100A800049FF054600221146FFF724FF0446214690
:100A90004FF0FF30FFF746FF70BD0000002002401E
:100AA0002E2E2F436F72652F5372632F6D61696E07
:100AB0002E630000001002400090D003114800682F
:100AC00040F001000F490860084640680E490840A0
:100AD0000C494860084600680C490840094908600C
:100AE0000846006820F4802008600846406820F42A
:100AF000FE0048604FF41F008860C8030449086086
:100B000070470000001002400000FFF8FFFFF6FEF3
:100B100008ED00E002480068401C01490860704789
:100B20005400002000BFFEE700BFFEE702E008C857
:100B3000121F08C1002AFAD170477047002001E057
:100B400001C1121F002AFBD1704710B503460020D7
:100B500001E0421CD0B2CA1DD41702EB5474B0EBB2
:100B6000E40FF6DB10BD0000FFF7F8FCFFF7F8FE1E
:100B7000FFF7D2FDFFF758FE00BF4F48C06820F0D6
:100B800040004D49C86000BF00BF0846006840F003
:100B90000100086000BF00BF4FF0E020006940F096
:100BA00002004FF0E021086100BF4FF40070FFF732
:100BB0006FFB42494248FFF7CAFC6420FFF7C8FABE
:100BC0003E493F48FFF7C3FC6420FFF7C1FA3B49A9
:100BD0003B48FFF7BCFC6420FFF7BAFA37493848B6
:100BE000FFF7B5FC6420FFF7B3FA63E035480078FF
:100BF000FF281ED04FF48070FFF74AFB3148007881
:100C000031490870314800683149086000202F4997
:100C10000860FF202B490870401C2E4909680143D9
:100C20002C4A116000BF00F063F8294800682A4987
:100C300008602A48007864283CD1402127480930C0
:100C4000FFF783FF2548007C0011254908602348F1
:100C5000C07B2449096841EA0040224908601F48D6
:100C6000807B096841EA00201E4908601B48407BE0
:100C7000096808431B490860002018490870194892
:100C800000681949884215D118490D48FFF741FC01
:100C900040F203310A48FFF740FC4FF4FA70FFF7C7
:100CA00057FA12490648FFF738FC40F2033104486E
:100CB000FFF72FFC9AE70000000800400C000C042E
:100CC000000C01403E0000204800002044000020AD
:100CD0004C0000200004014050000020A000002033
:100CE000300000202C0000205005A400080008045B
:100CF00000B54848007820B101280CD0022803D163
:100D000052E04548007800B182E001204149087076
:100D1000002008727CE041480068B0F5967F0AD355
:100D20003E480068B0F5FA7F05D83A48007A401C82
:100D30003849087237E03848007800282FD1374802
:100D4000006840F6B831884229D33448006841F23F
:100D50008831884223D82F48007A04281FDB2F4887
:100D600000680A21B0FBF1F02A49486002200870AF
:100D7000002088744872002126488172C172017374
:100D800041738173C17301744174002004E0002138
:100D9000234A1154411CC8B24228F8DB03E000206A
:100DA0001C49087034E033E01B48007800B92FE09C
:100DB0001848406819490968B1EB500F07D3154826
:100DC000406800EB400015490968884203D20020C2
:100DD000104908701CE00F48406800EB50000F49B4
:100DE0000968884209D30B48817C093000F01AF861
:100DF00001200849897C0A4A50540648807C401CDE
:100E0000C0B204498874422801D16420087000BF30
:100E100000BF00BDA0000020480000204C000020C2
:100E20005C00002070B50346CC1701EB5474E4104D
:100E30001C5D0A46CD1701EB5575ED10A1EBC506FB
:100E40000125B5402C430846CD1701EB5575ED1033
:100E50005C5570BD740E0008000000205C000000AE
:100E60002C0B0008D00E00085C0000205C04000081
:100E70003C0B000800000000000000000000000023
:100E80000000000000000000000000000000000062
:100E90000000000000000000000000000000000052
:100EA0000000000000000000000000000000000042
:100EB0000000FF0000000000000000000000000033
:100EC00000000000000000000000000000A24A0432
:04000005080000ED02
:00000001FF
