:020000040800F2
:1000000030040020010100082909000899020008B5
:1000100025090008490100088D0B000800000000B8
:10002000000000000000000000000000BB09000804
:100030004D01000800000000B9090008BD090008D2
:100040001B0100081B0100081B0100081B01000820
:100050001B0100081B0100081B0100081B01000810
:100060001B0100081B0100081B0100081B01000800
:100070001B0100081B0100081B0100081B010008F0
:100080001B0100081B0100081B0100081B010008E0
:100090001B0100081B0100081B0100086501000886
:1000A0001B0100081B0100081B0100081B010008C0
:1000B0001B0100081B0100087D0B00081B01000844
:1000C0001B0100081B0100081B0100081B010008A0
:1000D0001B0100081B0100081B0100081B01000890
:1000E0001B0100081B0100081B010008DFF80CD0F1
:1000F00000F018F800480047B50B00083004002055
:100100000648804706480047FEE7FEE7FEE7FEE7B1
:10011000FEE7FEE7FEE7FEE7FEE7FEE7250B000849
:10012000ED000008064C074D06E0E06840F00103D2
:1001300094E8070098471034AC42F6D3FFF7DAFF93
:10014000680C0008880C000800BFFEE7704700003C
:100150000349086000BF024909680029FBD17047C4
:100160000C00002010B54FF4807000F047F9002813
:1001700058D04FF4807000F0ADF83D480078012869
:100180000ED100213B4800F0F9FA3B493B4800F012
:10019000F5F901203A49087000203549087010E04F
:1001A00000BF3448406A3749088000BF3148406A80
:1001B000354908803049314800F0E4F901202C49E4
:1001C0000870324800780C282CDA2948007878B971
:1001D0002D480088C82804DD2B480088B0F5C87F6A
:1001E00020DB2A480078E8B100202849087019E08F
:1001F00025480088B0F5C87F11DD23480088B0F598
:10020000167F0CDA21480078401C20490870084607
:1002100000780C2806D100201949087002E000205F
:100220001A4908704FF4007000F0E8F8F0B14FF48C
:10023000007000F04FF81648007858B900210D48BA
:1002400000F09CFA13490D4800F098F9012010497C
:1002500008700BE000BF0748406A0A4908800D4952
:10026000064800F08FF900200949087010BD000011
:10027000080000200008004004000404000C0140B5
:10028000200000200A00002016000020100000209E
:10029000090000200800080400BFFEE708B5054972
:1002A000C9690143034AD1611146C96901400091FE
:1002B00000BF08BD0010024008B505498969014327
:1002C000034A9161114689690140009100BF08BD50
:1002D000001002400149086070470000140401400A
:1002E000024909688143014A1160704704040140D2
:1002F000024909688143014A1160704700040140C6
:10030000024909680143014A116070470404014031
:10031000024909680143014A116070470C04014019
:10032000024909680143014A116070470004014015
:10033000024909680143014A1160704708040140FD
:1003400070B504460125207900284DD0206800288A
:1003500050D0607920B1012809D0022815D10DE0D4
:100360002068FFF7BDFF2068FFF7DAFF0FE0206885
:10037000FFF7BEFF2068FFF7C3FF08E02068FFF724
:10038000CFFF2068FFF7BCFF01E0002500BF00BFE2
:10039000A07940B3A079012804D002280DD0032809
:1003A0001FD117E02068144909688143124A11607F
:1003B00000BF2068FFF7BCFF15E020680E49091F49
:1003C000096881430C4A121F116000BF2068FFF7C3
:1003D0009FFF08E02068FFF7ABFF2068FFF798FF5A
:1003E00001E0002500BF05E02068FFF781FF2068DD
:1003F000FFF776FF284670BD0C0401400146044813
:1004000000680840884201D1012070470020FCE7C5
:100410001404014010B5094ACBB252F8232022EA55
:1004200011420B0C93FAA3F3B3FA83F300FA03F32C
:100430001A43024BCCB243F8242010BD08000140FF
:100440002DE9F04102460B461868C0F30F2595FAD6
:10045000A5F0B0FA80F47CE00120A04028400028FC
:1004600076D0082C04D240F2011000FA04F106E024
:10047000A4F108004FF00116864046F080615868EC
:1004800002EB116691FAA1FCBCFA8CFC4FEA8C08D5
:100490004FF00F0C0CFA08FC376827EA0C0791FAAA
:1004A000A1FCBCFA8CFC4FEA8C0C00FA0CFC47EA6D
:1004B0000C07376000BF1869D66826EA11260F0AB4
:1004C00097FAA7F7B7FA87F700FA07F73E43D6601F
:1004D00000BF5868012802D05868092838D19868A8
:1004E00002EB116691FAA1FCBCFA8CFC4FEA8C0875
:1004F0004FF0030C0CFA08FC376827EA0C0791FA56
:10050000A1FCBCFA8CFC4FEA8C0C00FA0CFC47EA0C
:100510000C07376000BFD86802EB116691FAA1FCA6
:10052000BCFA8CFC4FEA8C084FF0040C0CFA08FC67
:10053000376827EA0C0791FAA1FCBCFA8CFC4FEA59
:100540008C0C00FA0CFC47EA0C07376000BF00BFB8
:10055000641C25FA04F000287FF47EAF0120BDE87A
:10056000F08102469068C1F30F231840C1F30F23B6
:10057000984201D1012070470020FCE7C1F30F220F
:1005800042617047C1F30F220261704770B500EB02
:10059000116391FAA1F5B5FA85F5AE000F25B540C6
:1005A0001C68AC4391FAA1F5B5FA85F5AD0002FAE5
:1005B00005F52C431C6070BDC268C1F30F235A407F
:1005C000C260704770B50120FFF776FE4FF0805093
:1005D000FFF764FE032002463A4B19684FF6FF030B
:1005E0001940394B0B4343EA0221364B196000BFD7
:1005F00000F0C6F905460022114600F0A1F90446B4
:1006000021466FF00B0000F0C3F900F0B9F9054680
:100610000022114600F094F9044621466FF00A00CA
:1006200000F0B6F900F0ACF905460022114600F0E2
:1006300087F9044621466FF0090000F0A9F900F09F
:100640009FF905460022114600F07AF9044621463A
:100650006FF0040000F09CF900F092F905460022CA
:10066000114600F06DF9044621466FF0030000F0DA
:100670008FF900F085F905460022114600F060F977
:10068000044621466FF0010000F082F900F078F98D
:1006900005460022114600F053F9044621464FF06A
:1006A000FF3000F075F900BF0848406820F0E060B6
:1006B000064948600846406840F00070486000BF46
:1006C00070BD00000CED00E00000FA0500000140E4
:1006D0004FF47A71B0FBF1F2521E4FF0E0235A61F1
:1006E00000229A6105221A6100BF70470149086023
:1006F000704700002800002010B502460023136850
:100700001B48824208D0B2F1804F05D0194882427E
:1007100002D01948824204D123F070004C6840EAAC
:1007200004031348824208D0B2F1804F05D011482B
:10073000824202D01048824204D123F44070CC6837
:1007400040EA040313608868D06200BF08889062A2
:1007500000BF0748824203D1087C106300BF00BF7E
:1007600000BF506940F00100506100BF012010BD82
:10077000002C014000040040000800404162704726
:1007800030B587B00820FFF797FD0420FFF794FDF0
:100790003948C0F30F21394A516100BF40F203309C
:1007A000009001200190022002900020039004900C
:1007B00069461046FFF744FE314800900120019041
:1007C00002200290002003900120049069462B48EB
:1007D000FFF736FE2B490120FFF71CFE2A490120B6
:1007E000FFF718FE4FF48070059001208DF8180077
:1007F00000208DF8190001208DF81A0005A8FFF7D8
:100800009FFD4FF40070059001208DF81800002026
:100810008DF8190003208DF81A0005A8FFF790FD48
:1008200004221A491548FFF7B1FE08221849134857
:10083000FFF7ACFE16480121104AD26822EA1022C6
:10084000030A93FAA3F3B3FA83F301FA03F31A4307
:100850000A4BDA6000BF00F093F80546002211460B
:1008600000F06EF804462146172000F091F817209A
:1008700000F05BF807B030BD0F030C04000C014022
:100880000C000C0402000F000200F0000100010443
:100890000200020430B585B00420FFF7FFFC00F031
:1008A0006FF805460022114600F04AF8044621463A
:1008B0001E2000F06DF81E2000F037F83F20ADF844
:1008C00000000020019042F210700290002003907E
:1008D00069461348FFF710FF00BF1148006820F079
:1008E00080000F49086000BF0020896844F20702B9
:1008F000914301430A4A916000BF00BF1146496815
:1009000021F070010143516000BF00BF10468068B4
:1009100020F080001146886000BF05B030BD0000A7
:100920000008004000BFFEE7704700F01F020121F1
:1009300091404209920002F1E022C2F80011704792
:10094000F0B503460C4603F00701C1F10700042887
:1009500001D9042001E0C1F107000646081D07285F
:1009600001D2002000E0C81E05460120B040401E14
:100970002040A8400127AF407F1E17403843F0BDFC
:1009800002480068C0F30220704700000CED00E050
:1009900010B5002807DA0A07140E054A00F00F0305
:1009A0001B1FD45403E00A07130E024A135410BD50
:1009B00018ED00E000E400E070477047024800686E
:1009C000401E0149086070470C00002070B50220ED
:1009D0004C49096821F0070101434A4A116000BFF0
:1009E00000BF1046006800F00700022803D0F9217C
:1009F00045A000F0CDF810204849096821F0F80121
:100A000041EAC001454A116000BF00BF10460068BE
:100A100040F001001146086000BF00BF00BF3F4822
:100A20000068C0F340000028F8D000204FF46011A7
:100A30003A4A526822F47C120A43384B5A6000BF8B
:100A400000BF1846006840F080701946086000BF7B
:100A500000BF00BF31480068C0F340600028F8D0F4
:100A600000202E49496821F0F00101432B4A5160D2
:100A700000BF10151146496821F4E061014351603F
:100A800000BF00201146496821F4605101435160C4
:100A900000BF02201146496821F003010143516063
:100AA00000BF00BF00BF1D48406800F00C000828D0
:100AB000F8D11B48FFF70CFE0420042808D14FF0A2
:100AC000E021096941F004014FF0E022116107E0E3
:100AD0004FF0E021096921F004014FF0E02211619B
:100AE00000BF0F48FFF702FEFFF74AFF054600224E
:100AF0001146FFF725FF044621464FF0FF30FFF770
:100B000047FF70BD002002402E2E2F436F72652FCD
:100B10005372632F6D61696E2E63000000100240F6
:100B20000090D0031148006840F001000F490860B0
:100B3000084640680E4908400C494860084600686D
:100B40000C490840094908600846006820F48020E4
:100B500008600846406820F4FE0048604FF41F001B
:100B60008860C80304490860704700000010024014
:100B70000000FFF8FFFFF6FE08ED00E00248006805
:100B8000401C0149086070472400002000BFFEE7B8
:100B900000BFFEE702E008C8121F08C1002AFAD110
:100BA00070477047002001E001C1121F002AFBD1ED
:100BB00070470000FFF706FDFFF708FFFFF7E0FDB5
:100BC000FFF768FE00BF2148C06820F040001F49C1
:100BD000C86000BF00BF0846006840F00100086020
:100BE00000BF00BF4FF0E020006940F002004FF06E
:100BF000E021086100BF16491648FFF7DDFC6420BC
:100C0000FFF7A6FA12491348FFF7D6FC6420FFF756
:100C10009FFA0F490F48FFF7CFFC6420FFF798FABF
:100C20000B490C48FFF7C8FC6420FFF791FA0A490A
:100C30000848FFF796FC0949087005E0084905488F
:100C4000FFF78FFC07490870F8E700000008004034
:100C50000C000C04000C01400100010408000020FD
:100C60000200020421000020880C0008000000207F
:100C70002C000000940B0008B40C00082C0000208D
:100C800004040000A40B00080000000000000000A5
:100C90000000000000000000000000000000000054
:100CA0000000000000000000000000000000000044
:040CB00000A24A0450
:04000005080000ED02
:00000001FF
