:020000040800F2
:10000000C004002001010008ED08000839020008C2
:10001000E908000849010008510B00080000000031
:100020000000000000000000000000007F09000840
:100030004D010008000000007D090008810900084A
:100040001B0100081B0100081B0100081B01000820
:100050001B0100081B0100081B0100081B01000810
:100060001B0100081B0100081B0100081B01000800
:100070001B0100081B0100081B0100081B010008F0
:100080001B0100081B0100081B0100081B010008E0
:100090001B0100081B0100081B0100086501000886
:1000A0001B0100081B0100081B0100081B010008C0
:1000B0001B0100081B010008410B00081B01000880
:1000C0001B0100081B0100081B0100081B010008A0
:1000D0001B0100081B0100081B0100081B01000890
:1000E0001B0100081B0100081B010008DFF80CD0F1
:1000F00000F018F800480047690C0008C004002010
:100100000648804706480047FEE7FEE7FEE7FEE7B1
:10011000FEE7FEE7FEE7FEE7FEE7FEE7E90A000886
:10012000ED000008064C074D06E0E06840F00103D2
:1001300094E8070098471034AC42F6D3FFF7DAFF93
:10014000580F0008780F000800BFFEE77047000056
:100150000349086000BF024909680029FBD17047C4
:100160001400002010B54FF4807000F017F900283B
:100170004BD04FF4807000F07DF829480078FF28BC
:1001800000D010BD27480078E8B14FF480702649B0
:1001900009688143244A116000BF00BF111D09682E
:1001A0000143121D116000BF00201E4908701C4948
:1001B000087000BF1D48406A1D49086000211B48A7
:1001C00000F0A0FA21E04FF480701749096801435C
:1001D000154A116000BF00BF111D09688143121D3F
:1001E000116000BF01200F4908700D4908700F48C9
:1001F000243000680E49086000BF0C48406A0D4971
:1002000008600021094800F07DFA4FF4007000F00A
:10021000C5F818B14FF4007000F02CF800BFB0E73B
:1002200048000020080000200804014000080040A9
:10023000500000200C00002000BFFEE708B5054973
:10024000C9690143034AD1611146C969014000915E
:1002500000BF08BD0010024008B505498969014387
:10026000034A9161114689690140009100BF08BDB0
:10027000001002400149086070470000140401406A
:10028000024909688143014A116070470404014032
:10029000024909688143014A116070470004014026
:1002A000024909680143014A116070470404014092
:1002B000024909680143014A116070470C0401407A
:1002C000024909680143014A116070470004014076
:1002D000024909680143014A11607047080401405E
:1002E00070B504460125207900284DD020680028EB
:1002F00050D0607920B1012809D0022815D10DE035
:100300002068FFF7BDFF2068FFF7DAFF0FE02068E5
:10031000FFF7BEFF2068FFF7C3FF08E02068FFF784
:10032000CFFF2068FFF7BCFF01E0002500BF00BF42
:10033000A07940B3A079012804D002280DD0032869
:100340001FD117E02068144909688143124A1160DF
:1003500000BF2068FFF7BCFF15E020680E49091FA9
:10036000096881430C4A121F116000BF2068FFF723
:100370009FFF08E02068FFF7ABFF2068FFF798FFBA
:1003800001E0002500BF05E02068FFF781FF20683D
:10039000FFF776FF284670BD0C0401400146044873
:1003A00000680840884201D1012070470020FCE726
:1003B0001404014010B5094ACBB252F8232022EAB6
:1003C00011420B0C93FAA3F3B3FA83F300FA03F38D
:1003D0001A43024BCCB243F8242010BD0800014060
:1003E0002DE9F04102460B461868C0F30F2595FA37
:1003F000A5F0B0FA80F47CE00120A040284000285D
:1004000076D0082C04D240F2011000FA04F106E084
:10041000A4F108004FF00116864046F0806158684C
:1004200002EB116691FAA1FCBCFA8CFC4FEA8C0835
:100430004FF00F0C0CFA08FC376827EA0C0791FA0A
:10044000A1FCBCFA8CFC4FEA8C0C00FA0CFC47EACD
:100450000C07376000BF1869D66826EA11260F0A14
:1004600097FAA7F7B7FA87F700FA07F73E43D6607F
:1004700000BF5868012802D05868092838D1986808
:1004800002EB116691FAA1FCBCFA8CFC4FEA8C08D5
:100490004FF0030C0CFA08FC376827EA0C0791FAB6
:1004A000A1FCBCFA8CFC4FEA8C0C00FA0CFC47EA6D
:1004B0000C07376000BFD86802EB116691FAA1FC07
:1004C000BCFA8CFC4FEA8C084FF0040C0CFA08FCC8
:1004D000376827EA0C0791FAA1FCBCFA8CFC4FEABA
:1004E0008C0C00FA0CFC47EA0C07376000BF00BF19
:1004F000641C25FA04F000287FF47EAF0120BDE8DB
:10050000F081C1F30F2242617047C1F30F220261F3
:10051000704770B500EB116391FAA1F5B5FA85F556
:10052000AE000F25B5401C68AC4391FAA1F5B5FAB1
:1005300085F5AD0002FA05F52C431C6070BDC2685C
:10054000C1F30F235A40C2607047000070B501200C
:10055000FFF782FE4FF08050FFF770FE0320024647
:100560003A4B19684FF6FF031940394B0B4343EAE6
:100570000221364B196000BF00F0E4F90546002265
:10058000114600F0BFF9044621466FF00B0000F061
:10059000E1F900F0D7F905460022114600F0B2F962
:1005A000044621466FF00A0000F0D4F900F0CAF9C1
:1005B00005460022114600F0A5F9044621466FF0D9
:1005C000090000F0C7F900F0BDF905460022114608
:1005D00000F098F9044621466FF0040000F0BAF9E3
:1005E00000F0B0F905460022114600F08BF90446F0
:1005F00021466FF0030000F0ADF900F0A3F90546C5
:100600000022114600F07EF9044621466FF00100F9
:1006100000F0A0F900F096F905460022114600F01E
:1006200071F9044621464FF0FF3000F093F900BF06
:100630000848406820F0E060064948600846406885
:1006400040F00070486000BF70BD00000CED00E09D
:100650000000FA05000001404FF47A71B0FBF1F29E
:10066000521E4FF0E0235A6100229A6105221A615E
:1006700000BF70470149086070470000600000201B
:1006800010B50246002313681B48824208D0B2F11D
:10069000804F05D01948824202D01948824204D1C5
:1006A00023F070004C6840EA04031348824208D0EB
:1006B000B2F1804F05D01148824202D010488242E8
:1006C00004D123F44070CC6840EA040313608868C6
:1006D000D06200BF0888906200BF0748824203D101
:1006E000087C106300BF00BF00BF506940F00100EC
:1006F000506100BF012010BD002C014000040040EB
:10070000000800404162704708B54FF0E0210969D8
:10071000009100BF411C01B1401C06E04FF0E021F8
:10072000096901F4803101B1401E0028F6D108BDED
:1007300030B587B00820FFF78FFD0420FFF78CFD50
:100740003E493F48FFF7DDFE40F2033000900120B4
:1007500001900220029000200390049069463848DE
:10076000FFF73EFE374800900120019002200290E2
:10077000002003900120049069463148FFF730FEC5
:1007800047F6780000900820019001200490694607
:100790002B48FFF725FE2C490120FFF70BFE2B49C4
:1007A0000120FFF707FE4FF48070059001208DF8BF
:1007B000180000208DF8190001208DF81A0005A8F6
:1007C000FFF78EFD4FF40070059001208DF81800A2
:1007D00000208DF8190001208DF81A0005A8FFF7F8
:1007E0007FFD04221A491648FFF793FE0822194993
:1007F0001348FFF78EFE17480121114AD26822EAFA
:100800001022030A93FAA3F3B3FA83F301FA03F372
:100810001A430B4BDA6000BF00F094F80546002243
:10082000114600F06FF804462146172000F092F8B8
:10083000172000F05CF807B030BD00000F030C0477
:10084000000C01400C000C0402000F000200F0003C
:10085000010001040200020430B585B00420FFF756
:10086000EDFC00F06FF805460022114600F04AF852
:10087000044621461E2000F06DF81E2000F037F8D7
:100880003F20ADF800000020019047F23050029068
:100890000020039069461348FFF7F2FE00BF11489D
:1008A000006820F080000F49086000BF00208968C0
:1008B00044F20702914301430A4A916000BF00BF1E
:1008C0001146496821F070010143516000BF00BF2B
:1008D0001046806820F080001146886000BF05B097
:1008E00030BD00000008004000BFFEE7704700F088
:1008F0001F02012191404209920002F1E022C2F858
:1009000000117047F0B503460C4603F00701C1F132
:100910000700042801D9042001E0C1F107000646C0
:10092000081D072801D2002000E0C81E054601204E
:10093000B040401E2040A8400127AF407F1E174016
:100940003843F0BD02480068C0F302207047000041
:100950000CED00E010B5002807DA0A07140E054A6E
:1009600000F00F031B1FD45403E00A07130E024AC2
:10097000135410BD18ED00E000E400E0704770472C
:1009800002480068401E01490860704714000020BA
:1009900070B502204C49096821F0070101434A4A19
:1009A000116000BF00BF1046006800F00700022879
:1009B00003D0B52145A000F0CDF8102048490968C2
:1009C00021F0F80141EAC001454A116000BF00BFB3
:1009D0001046006840F001001146086000BF00BFEB
:1009E00000BF3F480068C0F340000028F8D0002056
:1009F0004FF460113A4A526822F47C120A43384B91
:100A00005A6000BF00BF1846006840F08070194669
:100A1000086000BF00BF00BF31480068C0F34060FD
:100A20000028F8D000202E49496821F0F001014348
:100A30002B4A516000BF10151146496821F4E0614E
:100A40000143516000BF00201146496821F4605104
:100A50000143516000BF02201146496821F00301A3
:100A60000143516000BF00BF00BF1D48406800F057
:100A70000C000828F8D11B48FFF7EEFD04200428DD
:100A800008D14FF0E021096941F004014FF0E02264
:100A9000116107E04FF0E021096921F004014FF0F6
:100AA000E022116100BF0F48FFF7E4FDFFF74AFFA6
:100AB000054600221146FFF725FF044621464FF068
:100AC000FF30FFF747FF70BD002002402E2E2F435E
:100AD0006F72652F5372632F6D61696E2E63000014
:100AE000001002400090D0031148006840F001005F
:100AF0000F490860084640680E4908400C494860A4
:100B0000084600680C490840094908600846006822
:100B100020F4802008600846406820F4FE00486009
:100B20004FF41F008860C803044908607047000044
:100B3000001002400000FFF8FFFFF6FE08ED00E0A5
:100B400002480068401C01490860704744000020CA
:100B500000BFFEE700BFFEE702E008C8121F08C1A1
:100B6000002AFAD170477047002001E001C1121F2E
:100B7000002AFBD1704700000348006940F0800064
:100B80000149086170470000002002400348C06826
:100B900000F0010080F001007047000000200240DA
:100BA000024803494860034848607047230167458D
:100BB00000200240AB89EFCD00B502460F48006926
:100BC00040F001000D4B186100BFFFF7DFFF002868
:100BD000FBD0118000BFFFF7D9FF0028FBD0921C8B
:100BE000090C118000BFFFF7D1FF0028FBD003489C
:100BF000006920F00100014B186100BD0020024097
:100C000000B513480078FF2821D04FF480701149B7
:100C1000096881430F4A116000BF0D4800780E49F2
:100C200008700E4800680E49086000200B490860F3
:100C3000FF20074908700A4800680A4908609015B3
:100C4000114609680143116000BF00F0D3F800BDF0
:100C50004800002000040140540000205000002003
:100C6000580000205C000020FFF770FCFFF790FEAA
:100C7000FFF75EFDFFF7F0FD00BF5248C06820F0AF
:100C800040005049C86000BF00BF0846006840F0FF
:100C90000100086000BF00BF4FF0E020006940F095
:100CA00002004FF0E021086100BF4FF40070464998
:100CB00009688143444A116000BF44494448FFF732
:100CC0003EFC6420FFF744FA4FF47A70FFF71CFDF6
:100CD0003E493F48FFF733FC6420FFF739FA3B49B0
:100CE0003B48FFF72CFC6420FFF732FA37493848BD
:100CF000FFF725FC6420FFF72BFAFFF751FF4FF0B9
:100D0000A9313448FFF758FF4FF4FA60FFF7FCFCB5
:100D1000FFF732FF54E0FFF773FF2F480078642895
:100D20004ED12D48007C00112C4908602A48C07B18
:100D30002B49096841EA0040294908602648807B20
:100D4000096841EA0020264908602348407B096879
:100D500008432349086000201F49087020480068A4
:100D60002049884225D120491948FFF7CAFB1F496D
:100D70001748FFF7CAFB1D491548FFF7E0FB40F293
:100D800003311348FFF7C1FB4FF4FA70FFF7E0F9A6
:100D900015490F48FFF7B9FB14490D48FFF7B1FBA0
:100DA00012490B48FFF7CBFB40F203310848FFF72D
:100DB000A8FB0B4800680E4908600020084908603D
:100DC000A9E7000000080040000401400C000C04EA
:100DD000000C014000FC0008A800002030000020AA
:100DE0002C0000201BB426000800080404000404A2
:100DF0004000002000B54848007820B101280CD000
:100E0000022803D152E04548007800B182E0012079
:100E100041490870002008727CE041480068B0F544
:100E2000827F0AD33E480068B0F5257F05D83A484E
:100E3000007A401C3849087237E0384800780028AA
:100E40002FD13748006840F62821884229D33448FA
:100E5000006841F6C811884223D82F48007A042838
:100E60001FDB2F4800680A21B0FBF1F02A494860D7
:100E70000220087000208874487200212648817280
:100E8000C172017341738173C17301744174002095
:100E900004E00021234A1154411CC8B24228F8DB67
:100EA00003E000201C49087034E033E01B48007860
:100EB00000B92FE01848406819490968B1EB500F94
:100EC00007D31548406800EB40001549096888427F
:100ED00003D20020104908701CE00F48406800EB66
:100EE00050000F490968884209D30B48817C0930BA
:100EF00000F01AF801200849897C0A4A5054064833
:100F0000807C401CC0B204498874422801D164200E
:100F1000087000BF00BF00BDA800002054000020E2
:100F2000580000206400002070B50346CC1701EB88
:100F30005474E4101C5D0A46CD1701EB5575ED1095
:100F4000A1EBC5060125B5402C430846CD1701EBA2
:100F50005575ED105C5570BD780F0008000000203D
:100F600064000000580B0008DC0F0008640000203B
:100F70005C040000680B0008000000000000000096
:100F80000000000000000000000000000000000061
:100F90000000000000000000000000000000000051
:100FA0000000000000000000000000000000000041
:100FB0000000000000000000000000000000000031
:100FC000FF00000000000000000000000000000022
:0C0FD000000000000000000000A24A0425
:04000005080000ED02
:00000001FF
