:020000040800F2
:10000000B804002001010008E508000819020008F2
:10001000E108000849010008970B000800000000F3
:100020000000000000000000000000007709000848
:100030004D0100080000000075090008790900085A
:100040001B0100081B0100081B0100081B01000820
:100050001B0100081B0100081B0100081B01000810
:100060001B0100081B0100081B0100081B01000800
:100070001B0100081B0100081B0100081B010008F0
:100080001B0100081B0100081B0100081B010008E0
:100090001B0100081B0100081B010008510100089A
:1000A0001B0100081B0100081B0100081B010008C0
:1000B0001B0100081B010008950B00081B0100082C
:1000C0001B0100081B0100081B0100081B010008A0
:1000D0001B0100081B0100081B0100081B01000890
:1000E0001B0100081B0100081B010008DFF80CD0F1
:1000F00000F018F800480047650D0008B80400201B
:100100000648804706480047FEE7FEE7FEE7FEE7B1
:10011000FEE7FEE7FEE7FEE7FEE7FEE73D0B000831
:10012000ED000008064C074D06E0E06840F00103D2
:1001300094E8070098471034AC42F6D3FFF7DAFF93
:10014000501200087012000800BFFEE77047000060
:1001500010B54FF4807000F011F9002846D04FF42C
:10016000807000F077F827480078FF2800D010BD95
:1001700025480078E8B14FF480702449096881432C
:10018000224A116000BF00BF111D09680143121D02
:10019000116000BF00201C4908701A49087000BF98
:1001A0001B48406A1B4908600021194800F0A6FA64
:1001B0001CE04FF48070154909680143134A11602F
:1001C00000BF00BF111D09688143121D116000BFEF
:1001D00001200D4908700B4908700D482430006853
:1001E0000C49086000210A4800F088FA4FF40070BA
:1001F00000F0C4F818B14FF4007000F02BF800BF05
:10020000B5E700004000002008000020080401407D
:10021000000800404800002000BFFEE708B505497F
:10022000C9690143034AD1611146C969014000917E
:1002300000BF08BD0010024008B5054989690143A7
:10024000034A9161114689690140009100BF08BDD0
:10025000001002400149086070470000140401408A
:10026000024909688143014A116070470404014052
:10027000024909688143014A116070470004014046
:10028000024909680143014A1160704704040140B2
:10029000024909680143014A116070470C0401409A
:1002A000024909680143014A116070470004014096
:1002B000024909680143014A11607047080401407E
:1002C00070B504460125207900284DD0206800280B
:1002D00050D0607920B1012809D0022815D10DE055
:1002E0002068FFF7BDFF2068FFF7DAFF0FE0206806
:1002F000FFF7BEFF2068FFF7C3FF08E02068FFF7A5
:10030000CFFF2068FFF7BCFF01E0002500BF00BF62
:10031000A07940B3A079012804D002280DD0032889
:100320001FD117E02068144909688143124A1160FF
:1003300000BF2068FFF7BCFF15E020680E49091FC9
:10034000096881430C4A121F116000BF2068FFF743
:100350009FFF08E02068FFF7ABFF2068FFF798FFDA
:1003600001E0002500BF05E02068FFF781FF20685D
:10037000FFF776FF284670BD0C0401400146044893
:1003800000680840884201D1012070470020FCE746
:100390001404014010B5094ACBB252F8232022EAD6
:1003A00011420B0C93FAA3F3B3FA83F300FA03F3AD
:1003B0001A43024BCCB243F8242010BD0800014080
:1003C0002DE9F04102460B461868C0F30F2595FA57
:1003D000A5F0B0FA80F47CE00120A040284000287D
:1003E00076D0082C04D240F2011000FA04F106E0A5
:1003F000A4F108004FF00116864046F0806158686D
:1004000002EB116691FAA1FCBCFA8CFC4FEA8C0855
:100410004FF00F0C0CFA08FC376827EA0C0791FA2A
:10042000A1FCBCFA8CFC4FEA8C0C00FA0CFC47EAED
:100430000C07376000BF1869D66826EA11260F0A34
:1004400097FAA7F7B7FA87F700FA07F73E43D6609F
:1004500000BF5868012802D05868092838D1986828
:1004600002EB116691FAA1FCBCFA8CFC4FEA8C08F5
:100470004FF0030C0CFA08FC376827EA0C0791FAD6
:10048000A1FCBCFA8CFC4FEA8C0C00FA0CFC47EA8D
:100490000C07376000BFD86802EB116691FAA1FC27
:1004A000BCFA8CFC4FEA8C084FF0040C0CFA08FCE8
:1004B000376827EA0C0791FAA1FCBCFA8CFC4FEADA
:1004C0008C0C00FA0CFC47EA0C07376000BF00BF39
:1004D000641C25FA04F000287FF47EAF0120BDE8FB
:1004E000F08102469068C1F30F231840C1F30F2337
:1004F000984201D1012070470020FCE7C1F30F2290
:1005000042617047C1F30F220261704770B500EB82
:10051000116391FAA1F5B5FA85F5AE000F25B54046
:100520001C68AC4391FAA1F5B5FA85F5AD0002FA65
:1005300005F52C431C6070BDC268C1F30F235A40FF
:10054000C260704770B50120FFF776FE4FF0805013
:10055000FFF764FE032002463A4B19684FF6FF038B
:100560001940394B0B4343EA0221364B196000BF57
:1005700000F0E4F905460022114600F0BFF90446F8
:1005800021466FF00B0000F0E1F900F0D7F90546C5
:100590000022114600F0B2F9044621466FF00A002D
:1005A00000F0D4F900F0CAF905460022114600F027
:1005B000A5F9044621466FF0090000F0C7F900F0E4
:1005C000BDF905460022114600F098F9044621467F
:1005D0006FF0040000F0BAF900F0B0F9054600220F
:1005E000114600F08BF9044621466FF0030000F03D
:1005F000ADF900F0A3F905460022114600F07EF99E
:10060000044621466FF0010000F0A0F900F096F9D1
:1006100005460022114600F071F9044621464FF0CC
:10062000FF3000F093F900BF0848406820F0E06018
:10063000064948600846406840F00070486000BFC6
:1006400070BD00000CED00E00000FA050000014064
:100650004FF47A71B0FBF1F2521E4FF0E0235A6171
:1006600000229A6105221A6100BF704701490860A3
:10067000704700005800002010B5024600231368A0
:100680001B48824208D0B2F1804F05D019488242FF
:1006900002D01948824204D123F070004C6840EA2D
:1006A00004031348824208D0B2F1804F05D01148AC
:1006B000824202D01048824204D123F44070CC68B8
:1006C00040EA040313608868D06200BF0888906223
:1006D00000BF0748824203D1087C106300BF00BFFF
:1006E00000BF506940F00100506100BF012010BD03
:1006F000002C0140000400400008004041627047A7
:1007000008B54FF0E0210969009100BF411C01B11B
:10071000401C06E04FF0E021096901F4803101B18D
:10072000401E0028F6D108BD30B587B00820FFF77D
:1007300083FD0420FFF780FD3E493F48FFF7DEFEC2
:1007400040F203300090012001900220029000202E
:100750000390049069463848FFF732FE374800900E
:1007600001200190022002900020039001200490BB
:1007700069463148FFF724FE47F6780000900820CC
:1007800001900120049069462B48FFF719FE2C497F
:100790000120FFF7FFFD2B490120FFF7FBFD4FF480
:1007A0008070059001208DF8180000208DF8190048
:1007B00001208DF81A0005A8FFF782FD4FF40070A4
:1007C000059001208DF8180000208DF819000120F7
:1007D0008DF81A0005A8FFF773FD04221A49164880
:1007E000FFF794FE082219491348FFF78FFE1748B8
:1007F0000121114AD26822EA1022030A93FAA3F3D4
:10080000B3FA83F301FA03F31A430B4BDA6000BF28
:1008100000F094F805460022114600F06FF80446F7
:100820002146172000F092F8172000F05CF807B07E
:1008300030BD00000F030C04000C01400C000C0440
:1008400002000F000200F000010001040200020497
:1008500030B585B00420FFF7E1FC00F06FF80546E5
:100860000022114600F04AF8044621461E2000F0FE
:100870006DF81E2000F037F83F20ADF80000002092
:10088000019047F2305002900020039069461348CF
:10089000FFF7F2FE00BF1148006820F080000F490A
:1008A000086000BF0020896844F2070291430143B9
:1008B0000A4A916000BF00BF1146496821F07001EB
:1008C0000143516000BF00BF1046806820F08000E7
:1008D0001146886000BF05B030BD00000008004030
:1008E00000BFFEE7704700F01F020121914042095E
:1008F000920002F1E022C2F800117047F0B5034601
:100900000C4603F00701C1F10700042801D90420B7
:1009100001E0C1F107000646081D072801D20020AA
:1009200000E0C81E05460120B040401E2040A840FF
:100930000127AF407F1E17403843F0BD02480068D2
:10094000C0F30220704700000CED00E010B5002855
:1009500007DA0A07140E054A00F00F031B1FD454D0
:1009600003E00A07130E024A135410BD18ED00E00D
:1009700000E400E0704770471448006820B1134855
:100980000068401E114908601148006820B11048F5
:100990000068401E0E4908600E48006820B10D48EE
:1009A0000068401E0B4908600B48006820B10A48E7
:1009B0000068401E084908600848006820B10748E0
:1009C0000068401E05490860704700000C000020C8
:1009D0002C000020300000203400002038000020CF
:1009E00070B502204D49096821F0070101434B4AC7
:1009F000116000BF00BF1046006800F00700022829
:100A000004D040F21F1146A000F0C7F81020494959
:100A1000096821F0F80141EAC001464A116000BFAF
:100A200000BF1046006840F001001146086000BF9A
:100A300000BF00BF3F480068C0F340000028F8D066
:100A400000204FF460113B4A526822F47C120A43A2
:100A5000384B5A6000BF00BF1846006840F08070F5
:100A60001946086000BF00BF00BF32480068C0F3ED
:100A700040600028F8D000202E49496821F0F0019C
:100A800001432C4A516000BF10151146496821F4FA
:100A9000E0610143516000BF00201146496821F424
:100AA00060510143516000BF02201146496821F0A6
:100AB00003010143516000BF00BF00BF1D484068F3
:100AC00000F00C000828F8D11B48FFF7C1FD0420F6
:100AD000042808D14FF0E021096941F004014FF0EA
:100AE000E022116107E04FF0E021096921F00401E3
:100AF0004FF0E022116100BF0F48FFF7B7FDFFF78D
:100B00001DFF054600221146FFF7F8FE0446214668
:100B10004FF0FF30FFF71AFF70BD000000200240C9
:100B20002E2E2F436F72652F5372632F6D61696E86
:100B30002E630000001002400090D00311480068AE
:100B400040F001000F490860084640680E4908401F
:100B50000C494860084600680C490840094908608B
:100B60000846006820F4802008600846406820F4A9
:100B7000FE0048604FF41F008860C8030449086005
:100B800070470000001002400000FFF8FFFFF6FE73
:100B900008ED00E0704700BFFEE700BFFEE702E09F
:100BA00008C8121F08C1002AFAD1704770470020F8
:100BB00001E001C1121F002AFBD1704710B50020CF
:100BC0001A49087040F608011948FFF78AFC80F0BE
:100BD00001001649097808431449087041F21001D0
:100BE0001348FFF77EFC80F001001049097841EAC4
:100BF00040000E49087044F240010D48FFF771FCB7
:100C000080F001000949097841EA8000074908702D
:100C100042F220010648FFF764FC80F0010003491E
:100C2000097841EAC0000149087010BD2000002089
:100C3000000C014000B501460B48006940F002007D
:100C4000094A106110464161006940F0400010619E
:100C500000BF00F019F80028FBD00348006920F01D
:100C60000200014A106100BD0020024003480069F3
:100C700040F08000014908617047000000200240F8
:100C800001460868704700000348C06800F0010092
:100C900080F0010070470000002002400248034934
:100CA00048600348486070472301674500200240C0
:100CB000AB89EFCD00B502460F48006940F0010056
:100CC0000D4B186100BFFFF7DFFF0028FBD011803C
:100CD00000BFFFF7D9FF0028FBD0921C090C118040
:100CE00000BFFFF7D1FF0028FBD00348006920F0C8
:100CF0000100014B186100BD0020024000B51348FF
:100D00000078FF2821D04FF4807011490968814391
:100D10000F4A116000BF0D4800780E4908700E4858
:100D200000680E49086000200B490860FF20074951
:100D300008700A4800680A49086090151146096859
:100D40000143116000BF00F0D1F900BD4000002058
:100D5000000401404C00002048000020500000200A
:100D600054000020FFF7EEFBFFF73AFEFFF7DCFC34
:100D7000FFF76EFD00BF5548C06820F040005349A2
:100D8000C86000BF00BF0846006840F0010008606E
:100D900000BF00BF4FF0E020006940F002004FF0BC
:100DA000E021086100BF4FF40070494909688143A0
:100DB000474A116000BF47494748FFF7BDFB642021
:100DC000FFF79EFC43494448FFF7B6FB6420FFF75A
:100DD00097FC40494048FFF7AFFB6420FFF790FCC9
:100DE0003C493D48FFF7A8FB6420FFF789FCFFF76B
:100DF00055FF3A48FFF71EFF39493848FFF75AFFB9
:100E000038493648001DFFF755FF4FF4FA60FFF7E9
:100E100077FCFFF72BFF57E0FFF770FF00F0B4F807
:100E2000FFF7CCFE2D48FFF72BFF2F4908602F4816
:100E30000078642848D12D48007C00112C490860B6
:100E40002A48C07B2B49096841EA004029490860CB
:100E50002648807B096841EA00202649086023482B
:100E6000407B096808432349086000201F49087037
:100E7000204800681B493B39884214D01D4800684F
:100E8000174988420FD01B480068164988420AD08B
:100E90001848006813495039884204D01548006842
:100EA0001549884209D11248006814490978084058
:100EB00018B1C821002000F025F80E48006810493C
:100EC000086000200B490860A6E700000008004009
:100ED000000401400C000C04000C014000FC000860
:100EE0001BB426009004A40024000020A0000020D1
:100EF0001800002014000020F3F0EA002000002079
:100F00001C00002030B101280ED0022816D0032882
:100F100028D11DE0144A1278032A04D0134A116024
:100F20000122114B1A701DE0114A1278032A04D0D5
:100F3000104A116001220E4B1A7013E00E4A12780B
:100F4000032A04D00D4A116001220B4B1A7009E0EC
:100F50000B4A1278032A04D00A4A11600122084B76
:100F60001A7000BF00BF7047290000202C0000202D
:100F700028000020300000202A000020340000203B
:100F80002B0000203800002010B54D4800780128C3
:100F900006D102204A4908704A494B48FFF7AEFA89
:100FA0004748007802280CD14848006848B9032017
:100FB00043490870C8204549086042494248FFF744
:100FC000A1FA3F480078032805D14048006810B9CD
:100FD00000203B4908703E480078012806D10220D5
:100FE0003B4908703B493848FFF788FA3848007891
:100FF00002280CD13848006848B9032034490870E9
:10100000C8203549086033492F48FFF77BFA30483C
:101010000078032805D13048006810B900202C4919
:1010200008702E480078012807D102202B4908704B
:1010300040F201112448FFF765FA28480078022899
:101040000CD12748006848B9032024490870C820FB
:10105000234908601B491C48FFF754FA1F480078D1
:10106000032805D11E48006810B900201B490870EC
:101070001C480078012807D102201A49087040F264
:1010800002211148FFF73EFA1648007802280CD1D9
:101090001548006848B9032012490870C820124951
:1010A000086008490848FFF72DFA0E480078032821
:1010B00005D10D48006810B900200A49087010BD1C
:1010C0002900002008000804000C01402C0000202A
:1010D0002800002004000404300000202A00002022
:1010E000340000202B0000203800002000B54848C4
:1010F000007820B101280CD0022803D152E04548E5
:10110000007800B182E00120414908700020087297
:101110007CE041480068B0F5827F0AD33E48006811
:10112000B0F5257F05D83A48007A401C3849087246
:1011300037E03848007800282FD13748006840F65B
:101140002821884229D33448006841F6C8118842D2
:1011500023D82F48007A04281FDB2F4800680A2173
:10116000B0FBF1F02A494860022008700020887422
:101170004872002126488172C172017341738173E4
:10118000C17301744174002004E00021234A11540A
:10119000411CC8B24228F8DB03E000201C4908705B
:1011A00034E033E01B48007800B92FE0184840686D
:1011B00019490968B1EB500F07D31548406800EB97
:1011C000400015490968884203D200201049087080
:1011D0001CE00F48406800EB50000F490968884246
:1011E00009D30B48817C093000F01AF80120084926
:1011F000897C0A4A50540648807C401CC0B204498D
:101200008874422801D16420087000BF00BF00BD6F
:10121000A00000204C000020500000205C000020B6
:1012200070B50346CC1701EB5474E4101C5D0A46FC
:10123000CD1701EB5575ED10A1EBC5060125B540A5
:101240002C430846CD1701EB5575ED105C5570BD6C
:1012500070120008000000205C0000009E0B0008D7
:10126000CC1200085C0000205C040000AE0B0008FB
:10127000000000000000000000000000000000006E
:10128000000000000000000000000000000000005E
:10129000000000000000000000000000000000004E
:1012A000000000000000000000000000000000003E
:1012B000FF0000000000000000000000000000002F
:0C12C000000000000000000000A24A0432
:04000005080000ED02
:00000001FF
